:1000000009C00EC00DC00DC00BC00AC009C008C099
:1000100007C006C011241FBECFE9CDBF30D053C0EA
:10002000EFCF1F920F9200905F000F9211242F9339
:100030003F938F939F93EF93FF93CF93DF93CDB72E
:10004000DD2788E390E028E330E0F901308128E003
:100050002327FC01208382E590E024EBFC01208330
:100060000000DF91CF91FF91EF919F918F913F9190
:100070002F910F9000925F000F901F901895CF93D3
:10008000DF9300D0CDB7DD2787E390E027E330E0B2
:10009000F90120812860FC0120831A82198283E5FE
:1000A00090E023E530E0F90120812160FC0120830C
:1000B00089E590E029E530E0F90120812260FC012A
:0A00C00020837894FFCFF894FFCF5F
:00000001FF
